:02000002E0001C
:10400000000004205D430E0045430E0047430E00B0
:1040100049430E004B430E004D430E0000000000CC
:104020000000000000000000000000004F430E00F0
:1040300051430E000000000053430E009D750E001A
:1040400057430E0057430E0041680E0057430E00C1
:1040500057430E0057430E0057430E0057430E00C0
:1040600057430E0057430E0057430E0057430E00B0
:1040700057430E0057430E0057430E0057430E00A0
:10408000697C0E0057430E0057430E0057430E0045
:1040900057430E0057430E0057430E0057430E0080
:1040A00057430E0057430E0057430E0057430E0070
:1040B00057430E0057430E000000000000000000B0
:1040C00057430E0057430E0057430E0057430E0050
:1040D000957B0E0057430E0057430E0057430E00CA
:1040E00057430E0057430E0099B30E000000000026
:1040F0000000000057430E000000000057430E0070
:1041000000000000000000000000000000000000AF
:10411000000000000000000000000000000000009F
:10412000000000000000000000000000000000008F
:10413000000000000000000000000000000000007F
:10414000000000000000000000000000000000006F
:10415000000000000000000000000000000000005F
:10416000000000000000000000000000000000004F
:10417000000000000000000000000000000000003F
:10418000000000000000000000000000000000002F
:10419000000000000000000000000000000000001F
:1041A000000000000000000000000000000000000F
:1041B00000000000000000000000000000000000FF
:1041C00000000000000000000000000000000000EF
:1041D00000000000000000000000000000000000DF
:1041E00000000000000000000000000000000000CF
:1041F00000000000000000000000000000000000BF
:10420000314932480A1A02D0072291438D4630497B
:1042100030480A1A06D00722914381F30988022206
:1042200082F314882C482D492D4A00F03CF82D4883
:104230002D492E4A00F037F82D482E492E4A00F01D
:1042400032F82E482E492F4A00F02DF82E482F49DB
:104250002F4A00F028F82F482F49304A00F023F861
:104260002F483049304A00F01EF8304830490022CB
:1042700000F024F82F483049002200F01FF82F4AA0
:1042800090471F481F49884205D00268043003B494
:10429000904703BCF7E700208646EC46002000214B
:1042A000274A9047FEE7884207D0521A05D0037884
:1042B00001300B700131013AF9D17047884202D0C8
:1042C00002700130FAE770470000042000F8032074
:1042D0000000042000000420B4A60F001C000020F1
:1042E00088000020B8430E00B8430E00186D0F0080
:1042F000B4A60F001C0000201C000020DC6D0F0085
:10430000DC6D0F00DC6D0F00DC6D0F00DC6D0F004D
:10431000DC6D0F00DC6D0F00DC6D0F00B3A60F002D
:1043200020A70F00880000208800002088000020BF
:104330001C9F00201C9F00201C9F002085430E0016
:1043400041750E00FEE7FEE7FEE7FEE7FEE7FEE74B
:10435000FEE7FEE7FEE7FEE700F002B8FFF7FCBF6E
:104360000F484FF00701884385460E4880470E48A6
:10437000016841F470010160BFF34F8FBFF36F8F8D
:10438000FFF73EBF09480A490A4A884207D0521A35
:1043900005D0037801300B700131013AF9D1704733
:1043A00000000420157D0E0088ED00E0C86D0F00B0
:0843B000080000201C000020A1
:1043B8007047000007B5044B0093044A402300F0FF
:1043C80032F803B05DF804FBD9430E0089000020E1
:1043D8002DE9F84388461446B2B10F4B0F4E03251A
:1043E800002743F00109224608EB0701002003F0EB
:1043F8005DF90744241A48B933782BB14FF47A4051
:10440800C847013D02D13570BDE8F88301233370F8
:10441800002CE8D1F8E700BFE06D0F00880000200D
:10442800704703F091B9F0B595B01D461646084699
:104438000C4601F0B2FF1A9B0D93CDE908650025E3
:104448002B46082205A920460A958DF82C500C9574
:1044580001F0CAFF079B0293069B03939DF8143053
:104468008DF8115003F00302012A1DD1BDF8142064
:10447800059DC3F3C203C2F383168DF81030B20052
:1044880008230EA9204601F0AFFFC5F3952508AB18
:104498000093324602AB0EA9284600F0E1FB204605
:1044A80001F07FFF15B0F0BD022AF8D1BDF8165013
:1044B800C3F3C203C5F389158DF810300827082DFA
:1044C8002E4628BF08263B4632460EA9204601F054
:1044D8008BFFAD1B08AB02AA31460EA8374400F08B
:1044E80023FC002DEBD1DAE708B5FFF79AFF074860
:1044F800042100F01BFB002803DA0549412001F0E4
:104508000FFB044B01225A7108BD00BFB86D0F00A4
:10451800F46D0F001C000020037813F0040216D07D
:1045280003F00303012B03D0022B09D001207047AD
:104538000A6800880232C0F3831002440A60F5E773
:104548000B684288023303EB92130B60EEE71046C8
:10455800704700002DE9F04F044685B0861C002006
:104568000F46154601F0A0FA434A5168396093682E
:10457800424F03F580635B1A9246A7F10409A7F13D
:104588000808B3421AD30020002D71D004F00F039D
:104598009B0143F0050363F30F00DAF80430C3F31B
:1045A800090203321E444AF822000020CAF80460B7
:1045B80001F08AFA012005B0BDE8F08F01213846E4
:1045C80001F0DDFA484601F0F2FA404601F0EFFA50
:1045D800DAF808000090C0F3090003300AEB800005
:1045E8006946FFF799FF009B8346C8B9C3F30902E0
:1045F8000AEB8202D16801919A1C0133C3F30903C3
:104608000AEB83030092D86801F00303012B27D03B
:10461800022B08D01A494FF4C27001F081FA0CE05D
:10462800C3F30900D9E7BDF80630C3F38913033390
:104638004FEA104B02EB93030093404601F0BAFA9D
:1046480010B1009BCAF808305946384601F097FA6D
:10465800DAF80830DAF8042003F580639B1A90E74B
:10466800BDF80430C3F383134FEA104B1344E3E758
:10467800A40544F0060090E79C010020B811002032
:10468800636E0F00064B074810B500221A7001F040
:104698003DFE044610B9044801F0BAFE204610BD9C
:1046A8009C010020906D0F00D06E0F0030B50A4CB1
:1046B80071B10A4A0A49121BD20800239A4201D151
:1046C800002030BD31F82350854202D00133F5E790
:1046D800034654F83300F4E7286D0F00906D0F007F
:1046E8001C000020094B013903EBC000032909D83D
:1046F800DFE801F00A0204060420704700797047D9
:10470800407970470020704702207047286D0F00DD
:10471800034BD3E90130C31A58425841704700BFD0
:104728009C0100202DE9FF41FFF7F2FF0546002814
:1047380040F0F3807A4C41F21803E050BFF34F8FFA
:10474800A3680093C3F309030333764E04EB830095
:104758006946FFF7E1FE009B10B13268002A5BD082
:10476800C3F30902991C013304EB8202C3F3090362
:1047780004EB8303D268DB68029302F00303022B85
:104788000192009159D1BDF806306748C3F38917E3
:10479800502F3E4628BF502666F38F1306F10801B6
:1047A800ADF8063001F0CAFD0546002800F09F80EC
:1047B80001F0F3FD002301A90822284601F000FEBC
:1047C8000099CB43C3F309030133C1F30901033152
:1047D800B6EB830F4FEA830804EB81012AD908233B
:1047E8004246A6EB0806284601F0EAFDF6B24F4914
:1047F80008F108033246284601F0E2FD009B033722
:1048080003EB9707009741F21803E358002B49D1AF
:1048180041F21003E65858E062689A4204D8A26050
:10482800284604B0BDE8F081C3F30903033304EB61
:1048380083008DE708233246DDE7012B57D1BDF809
:1048480004303948C3F38311062928BF062161F3D0
:10485800891302318900ADF8043001F06FFD054677
:10486800002844D001F099FD0023082201A9284618
:1048780001F0A6FD0026BDF80420C2F38312B300A0
:10488800964203F10803BED200994A1CC1F30901FC
:104898000331009204EB81010422284601F090FDC7
:1048A8000136E8E7284601F07CFDFFF731FF80F08C
:1048B8000100C5B2B4E7F3685B7923B133682946D0
:1048C8001B6830469847F3681E68002EF3D12846C7
:1048D80001F067FD304601F0E7F841F21803E358AC
:1048E8000BB9009BA360002001F0EEF8DDE741F270
:1048F8001003E45854B90E4B0E480F49C01AC008AB
:10490800000440F0020000F075F8CEE72368204666
:104918009B689847E3681C68ECE7002580E700BFC0
:104928009C010020B4110020906D0F00A801002008
:10493800286D0F00386D0F00BA6E0F002DE9F34790
:1049480004460F46914601A9012218461E46FFF764
:1049580001FEDFF89C8078B3019D0023A81CB342B8
:1049680003EB000132D11E48002101F0E5F880F385
:10497800100A1C4B1C4A4FEA14499B1AB9EBD30F77
:1049880004D31A4940F2A91001F0CAF86B1CC3F30A
:104998000903E40008EB830304F0380449EA0A40F9
:1049A800C5F3090544F00104D860033544EA8613C9
:1049B80043EA872348F8253098F800301BB1FFF701
:1049C800B1FE0028FBD102B0BDE8F087C1F30901B0
:1049D80008EB810159F82320CA600133BFE700BF03
:1049E800B8110020906D0F00286D0F00636E0F0046
:1049F8009C01002000231A46FFF7A0BF07B501233A
:104A0800019201AAFFF79AFF03B05DF804FB07B50E
:104A1800CDE9002302236A46FFF790FF03B05DF853
:104A280004FB1FB5CDE90123069B039301AA0323C9
:104A3800FFF784FF05B05DF804FB1FB5CDE900233F
:104A4800069B0293079B03936A460423FFF776FFAE
:104A580005B05DF804FB7FB5CDE90123089B0393FE
:104A6800099B04930A9B059301AA0523FFF766FF98
:104A780007B05DF804FB00002DE9F7430446D01C9D
:104A88008846164601A900228008FFF763FD254DD8
:104A980098B3019FB81C0190C0F30900C0F580636A
:104AA800B6EB830F00F103004FEA830905EB8000A2
:104AB8002CD83246414611F062FD1B48002101F016
:104AC8003BF880F310007B1CC3F30903C7F3090705
:104AD800220C05EB8303033742EA0040E400D86068
:104AE80004F0380455F8273044F0020444EA8652AA
:104AF80003F47C131A4345F827202B781BB1FFF7E2
:104B080011FE0028FBD103B0BDE8F0834A464146B8
:104B180011F035FDA6EB090208EB090105F10C00BF
:104B2800C9E700BF9C010020B811002030B510492A
:104B380041F2100203468A58002014463CB9DC684A
:104B4800207152B941F210054B51226030BDE46822
:104B58002579854206D02468F0E7D268116821607B
:104B68001360F3E701300A28E7D14FF0FF30EDE793
:104B78009C01002038B5094A41F21003D45801239A
:104B880013701D4604B938BDE3685D71236820467B
:104B98005B689847E3681C68F4E700BF9C01002045
:104BA80007B503460846197A052911D05B7A2BB157
:104BB800094A0A49019001F09DF8019808490190B5
:104BC80001F098F8019803B05DF804EB01F080B8A3
:104BD800002AF8D0F2E700BFDC6E0F00B6790F00AC
:104BE8006A930F0030B5C38885B004460D4633B1CB
:104BF800144A00921449154A284601F07BF8217A94
:104C080005291DD0637A4BB1A088FFF76BFD104BC7
:104C1800104953F82020284601F06CF8227A0E4BF0
:104C2800A08853F8222003920021FFF73FFD039A42
:104C38000A490346284605B0BDE8304001F05AB895
:104C480005B030BDDC6E0F00E96E0F00E16E0F009D
:104C58006C6F0F00B6790F00906F0F00016F0F0097
:104C68002DE9F04385B01F460C9D002395F80C9064
:104C78002B7306460C46904629463846FFF7B2FF86
:104C8800B8F1060F09D8DFE808F00412181F283316
:104C980040003146284601F02DF8002229463846C2
:104CA800FFF77EFF85F80C9005B0BDE8F083226819
:104CB8003146284601F01EF8EFE7D4E900233146D3
:104CC800284601F017F8E8E7A36800933146D4E9CD
:104CD8000023284601F00EF8DFE7E3680193A36894
:104CE80000933146D4E90023284601F003F8D4E7BD
:104CF80023690293E3680193A36800933146D4E9DA
:104D08000023284600F0F6FFC7E763690393236989
:104D18000293E3680193A36800933146D4E9002322
:104D2800284600F0E7FFB8E708292DE9F74F804645
:104D38000E4617461C463CD8002593F80C901D7368
:104D480019461046FFF74EFFDFF888A0DFF888B055
:104D5800AE4231D918F805205946204600F0CAFF5E
:104D68000135082DF4D11949194DDFF870A02046F6
:104D780000F0C0FF4FF0000B5E4522D918F80B2059
:104D88007E2A05D81046019211F060FB019A00B9FD
:104D98002E225146204600F0ADFF0BF1010BBBF16E
:104DA800080FE9D1012221463846FFF7F9FE84F8B9
:104DB8000C9003B0BDE8F08F5146204600F09AFFF2
:104DC800CEE72946204600F095FFE6E7156F0F006D
:104DD800136F0F00116F0F000B6F0F00176F0F008D
:104DE8000023C0E902328B881A44B1F90630026107
:104DF8001A44C0E9001142610888003818BF012030
:104E080070474268118838B50346002937D0148A9C
:104E180002F1100141602CB9C2680168FFF7E0FF98
:104E2800204638BD9078118900F03005302D14D116
:104E3800947C04F03004302C1BD190881969091A2D
:104E480019610021908AB2F91620084419690144B1
:104E58001961114459610120E3E700F0F004202CA6
:104E680007D150894143002DECD1986801309860F2
:104E7800E8E700F0C000802808BF0421F3E70846EF
:104E8800CFE770B5466804460D4663681A88AA429B
:104E980004D19B7803F00F03082B07D12046FFF7B6
:104EA800B0FF6368B342F0D1002070BD0120FCE779
:104EB80043681A44426011B101399A4201D1012074
:104EC800704713F8010B01F8010FF6E783682DE925
:104ED800F3410446884623B90026304602B0BDE8AF
:104EE800F081036801220DF1070198470646002862
:104EF800F2D0A3689DF80750013BA3609DF90730E5
:104F0800002B1ADA05F07F050727A368002BE3D0EA
:104F1800236801220DF10701204698470028DBD0BD
:104F2800A3689DF80720013BA36002F07F03BB4004
:104F38001D43130607F1070702D4C8F80050CCE751
:104F4800232FE2D1C8E770B54568AA7802F00F06AA
:104F5800082E86B003461FD103691C6800260CB9C9
:104F680006B070BD236862689D6826732946684646
:104F7800FFF736FF6368049304F10C030593AB78DD
:104F880003F0C003802B08BF231D684608BF0493A5
:104F9800FFF7D9FFA468E2E712F0C0011CD102F0C4
:104FA800300010280AD15A691170072EEC68186968
:104FB80009D10146204600F017F8D1E79006F4D54C
:104FC8005B691980CCE72A89214614B111F0D7FA18
:104FD800C6E711F0FDFAC3E78029C1D100690021B5
:104FE80092060160BCD5EBE77FB50A4601466846E4
:104FF800FFF7F6FE30B16846FFF7A5FF6846FFF7F2
:1050080000FFF7E707B05DF804FB000030B5044681
:1050180085B01546A9B90268114B9A4211D0102DD6
:1050280006D82A4669462046FFF7F0FF05B030BD8E
:10503800102269462046FFF7E9FF0028F6D0103D08
:10504800EDE7A368AB4201D20020EFE723682A46C8
:10505800204698470028F7D0A268521BA260E5E7CF
:10506800B94E0E00F7B50E4601A907461546FFF7DB
:105078002DFFA8B1019A0123D3184FF0000404D2E0
:10508800B17801F0C001802901D1204608E03189BA
:105098009942FAD329463846FFF7B8FF019BEC54EA
:1050A80003B0F0BD73B50D4601A906461446FFF7D7
:1050B8000DFF98B1019AB2F5803F11D2AB7803F099
:1050C800C003802B02F102010AD02B898B4207D33F
:1050D8002146304621F8022BFFF798FF02B070BD39
:1050E8000020FBE710B5034C82600022C0E90041B4
:1050F800C26010BDB94E0E002DE9F34100260446EA
:105108000F46B0463546A3682BB3236801220DF13C
:10511800070120469847F0B1A3689DF807C0013BF6
:105128000CF07F02C5F12001A360A5F1200302FA6B
:1051380003F322FA01F10B43AA401CF0800F46EA60
:10514800020643EA080805F1070502D1C7E9006825
:1051580002E0462DD7D1002002B0BDE8F08173B53A
:105168000C4669461646FFF7C7FF68B12389082B26
:105178000CD1DDE90045C6E90045DDE90023AB4275
:1051880006BFA2420120002002B070BD042B04D14A
:10519800009B33601C460025EFE7022B4FF0000010
:1051A80004D1009B33809CB20546E6E7012BEBD186
:1051B800009B337003F0FF04F6E737B50D466946E8
:1051C8001446FFF799FF30B12A89082ADDE9003132
:1051D80003D1C4E9003103B030BD042A18464FEAB0
:1051E800E37108D123601A460B468B4206BF824200
:1051F80001200020EFE7022A04D11BB223801AB253
:10520800D317F2E7012A03D15BB223705AB2F7E74A
:105218000020E0E7F7B51F4600233B700D460B70F2
:10522800136001A904461646FFF750FE30B9A3687B
:1052380013B901233B70002003B0F0BD019C002C82
:10524800F7D0E30804F0070433602C70F4E713B5D3
:10525800044605291FD8DFE801F0030F151E1E1CA0
:10526800012201A92046FFF7D1FE18B19DF90430AB
:10527800002BF5DB02B010BD082200212046FFF705
:10528800C5FEF7E701A9FFF721FE0028F2D0019A31
:10529800F3E70422F1E70020ECE773B50D4601A916
:1052A8000446FFF713FE064618B90026304602B03A
:1052B80070BD94E80F0085E80F0001998A42F4D385
:1052C800A960A3685B1AA360F0E700002DE9F0432A
:1052D8005668B37813F0C00489B007468C46154663
:1052E80003D0402C67D000240CE003F00F025D4986
:1052F80003F03003202B51F8228023D006D8E3B1E5
:10530800102B17D0204609B0BDE8F083302BF9D117
:105318006B6931881980072A09D1214632892869A1
:1053280011F056F96B682969D868FFF75DFE2A699C
:1053380069683EE06B6901221A702A693146C047E4
:105348000446DFE7BCF1020FD5F8149024D1042AF3
:1053580022D804A9FFF7A1FF04460028C3D0069B62
:105368002BB16968B9F800304A899A4205D8059B7B
:105378007B60069B002BC5D0B5E708892A6903FB2B
:10538800002204A8C04728B1B9F800300133A9F8B1
:105398000030E4E70446EAE7B9F8003072899A4237
:1053A800A1D931892A69581C03FB0122A9F80000F8
:1053B80031463846C3E7D2F81080464656F8043BD3
:1053C80013B9FFF744FFBBE7022914D104A9FFF77B
:1053D80064FF002887D0D8F800306968324604A8EE
:1053E8009847044600283FF47EAF069B002BF2D175
:1053F800059B7B6086E7012925D005292BD000294C
:105408007FF471AF0C460DF1040901340B2C3FF405
:105418006AAF012249463846FFF7F8FD00283FF4F5
:1054280062AF19F9013B002BEFDB0F4B049301AB83
:10543800CDE90534002307936968D8F8003032466F
:1054480004A898477CE7082201A9FFF7DFFD082494
:105458000028EAD147E704220DEB0201FFF7D6FD49
:105468000424F5E7A46F0F00B94E0E002DE9F04FA4
:1054780091B00446002604A8CDE90266FFF7B0FC07
:10548800A3683BBBDDE9053404A89D78FFF7B9FCA8
:105498000028F7D115F0300F03D1059B1B8803B105
:1054A8000134002C00F0A9806309002202A993426C
:1054B80040F09C8010AA02EB830304F01F0453F809
:1054C800383CC4F120044FF0FF30E040C31A584282
:1054D80058410DE00DF1030301AA0DF10201204628
:1054E800FFF798FE38B99DF80330002BCAD1002089
:1054F80011B0BDE8F08F019904A8FFF7C2FC00289D
:1055080050D1019BB3427DD3059D059A937803F052
:105518000F03082B7FD004A8FFF773FC059B9D425F
:10552800F3D14FF0FF36019FB7426BD3089B9DF82C
:1055380002A0D4F808801D684FF00109A368002D67
:105548005DD098459CD12B68D3F800B0BBF1000F13
:1055580008D053463A4629462046D8470028C6D0A0
:10556800AD68EBE7D3F808B0BBF800309F42F7D13D
:105578006A6859460AA8FFF733FC6B680E9305F171
:105588000C030F939BF8023003F0C003802B04BF79
:105598002B1D0E930AAA85F80C9051462046FFF75A
:1055A80095FEDBE7059B9B7813F0300F0FD1069A29
:1055B8003F2A0CD8510910AB03EB810102F01F02FE
:1055C8000123934051F8382C134341F8383CE568DF
:1055D8002DB19DF80220019904AB2046A8479DF8FB
:1055E800021004AA2046FFF771FE10E051F822507D
:1055F80001357FF47DAF013259E7012078E79845FE
:105608007FF43EAF9DF802102046FFF720FE0028E9
:105618007FF436AF6BE7168885E737B50C46054645
:10562800114620460192FFF7DFFC019A21462846E1
:1056380003B0BDE83040FFF719BF70B586B0CE683B
:1056480001920C4602A90546FFF727FE68B1E068FB
:1056580058B1A378019A03F03003202B314602A8F1
:1056680005D1FFF7DAFF039B6B6006B070BDFFF74B
:10567800FDFEF8E7D3B50C466946FFF73DFD80B15E
:10568800DDE9001300274A0801F0010642EAC37267
:1056980056EA07014FEA53031CBFD243DB43C4E970
:1056A800002302B0D0BD37B50D4669461446FFF752
:1056B800E1FF68B12B89082B0CD1DDE90001C4E9B1
:1056C8000001DDE900238B4206BF82420120002051
:1056D80003B030BD042B03D100982060C117F0E758
:1056E800022B04D1BDF90000208000B2F6E7012B9F
:1056F80004D19DF90000207040B2EFE70020E7E7F1
:1057080013B504220C460DEB0201FFF77FFC08B12C
:10571800019B236002B010BD1146FFF7F1BF13B51E
:1057280008220C466946FFF771FC18B1DDE9002331
:10573800C4E9002302B010BD1146FFF7F0BF38B529
:105748002022044608300D4610F019FF2022A9181F
:1057580004F1280010F013FF002038BD2DE9F341B3
:105768001B4D98461B4B036004460E4628460121F4
:10577800174600F0E1F9BFF35F8F30BB00F0F6F891
:105788003B46089ACDF8008006F10801204604F04F
:10579800A3FC044600F0F8F82B68012B03D00E494F
:1057A800932000F0BDF9BFF35F8F00232B6044B155
:1057B8000A4948F2165248F242538C4214BF144622
:1057C8001C46204602B0BDE8F08148F20454F8E7D0
:1057D80054220020DD55AABBD46F0F008408F000C6
:1057E8000E4B984214D00AD8B8B10D4948F2165257
:1057F80048F20153884214BF104618467047094BB7
:10580800984208D0084948F2165248F20353F1E783
:1058180048F20350704748F2025070470102F00006
:105828000002F0000202F0000F02F00008B5083094
:1058380004F0BCFCBDE80840FFF7D2BF10B5064C29
:105848002268012A03D00549932000F069F9BFF3C3
:105858005F8F0023236010BD54220020D46F0F00F7
:1058680013681F2B73B505460E4614461AD9012135
:105878000F4800F061F9BFF35F8FB0B900F076F818
:10588800314605F1080004F0FDFC019000F07CF8B9
:10589800FFF7D4FF0198FFF7A3FF08B9202323607F
:1058A80002B070BD48F21450FAE748F20450F7E726
:1058B800542200202DE9F04105460E4618480121E2
:1058C800144600F039F9BFF35F8F20BB00F04EF8A3
:1058D800DFF850800835B4F5805F274628BF4FF4BD
:1058E800805731463A46404610F049FE3A4641460E
:1058F800284604F075FCE41B3E4450B9002CEAD15C
:1059080000F042F8FFF79AFF2046BDE8F041FFF7A4
:1059180067BF0446F4E748F20450BDE8F08100BFD1
:105928005422002054120020024B0020C3F8000526
:10593800704700BF00A0025038B50A4B00251D6013
:10594800BFF35F8F084C0123C4F8003504F0CAFC8C
:10595800C4F8005520B1052848F2035018BF0320A9
:1059680038BD00BF5422002000A00250044B012281
:10597800C3F80025034B4FF480625A60704700BF9C
:1059880000A0025000E100E0064B0022C3F8002509
:10599800054B4FF48062C3F88420BFF34F8FBFF3E9
:1059A8006F8F704700A0025000E100E02DE9F0473A
:1059B800274F3B888B4206460D46904644D300202D
:1059C80000F072F8234B24481978244B00881C787F
:1059D800E2B2844238BF0132C9B234BFD2B2002227
:1059E80091422BD01C781A78D1B2904286BF0131EF
:1059F800C9B200211970002000F066F84FF6FF7355
:105A08009C4223D0DFF85C90D9F800204FEAC40A02
:105A180042F8348002EBC4039EB195B1104B38882C
:105A28001B682A4604FB0030314610F0A8FDD9F85F
:105A38000030534400209D80BDE8F0874FF6FF7486
:105A4800D9E700209880F7E70920F5E70420F3E775
:105A580064220020682200206622002058220020AC
:105A68005C2200206022002072B6024A13680133CB
:105A7800136070476C220020034A1368013B1360CF
:105A880003B962B6704700BF6C220020EFF30583AC
:105A9800C3F308032BB9EFF31480C04300F00100EF
:105AA800704701207047000008B5FFF7EFFF012895
:105AB80003D00449432000F033F8BDE80840FFF75D
:105AC800D3BF00BF20700F0008B5FFF7DFFF012824
:105AD80003D00449512000F023F8BDE80840FFF73F
:105AE800CBBF00BF20700F0030B53AB11368DB435D
:105AF8000A4D0144814204D1D84330BD4FF0FF33F1
:105B0800F6E710F8012B5340082213F0010418BFE0
:105B18002C46013A84EA5303F7D1EBE72083B8ED2A
:105B280007B5CDE900016A46002144F2020001F000
:105B380033FC03B05DF804FB10B5034653E8000FCF
:105B48000A4643E8002494F0000FF7D110BD10B5C1
:105B5800034653E8002F42EA010043E8000494F0AA
:105B6800000FF6D110BD10B5034653E8000F00EA48
:105B7800010243E8002494F0000FF6D110BD10B5DF
:105B8800034653E8002F02EB010043E8000494F0B9
:105B9800000FF6D110BD10B5034653E8002FA2EB55
:105BA800010043E8000494F0000FF6D110BD012174
:105BB800FFF7CDBF0021FFF7D6BF000010B50446A0
:105BC800002834D003681BB91A49FF20FFF7A8FF43
:105BD800636823B917494FF48070FFF7A1FFA368E2
:105BE80023B9144940F20110FFF79AFFE36823B97B
:105BF80010494FF48170FFF793FF238A23B90D49A9
:105C080040F20310FFF78CFFD4E9012321689B1AA7
:105C1800DBB20A60013BDBB2FF2B226802D1002015
:105C2800107110BD1168481C10600B70F2E70E204F
:105C3800F7E700BF7E700F0038B5044620B9114958
:105C48004FF49270FFF76CFF0020FFF72DFF2268DA
:105C580063681168994213D9481E106011F8015CF5
:105C6800E368218A01FB0535A36811791B1ADBB2A9
:105C7800994200D213710020FFF726FF284638BD4D
:105C88000025F8E77E700F0038B50C46054620B9A8
:105C98000E4940F24710FFF743FF24B90B494FF470
:105CA800A470FFF73DFF0020FFF7FEFE2A68136887
:105CB800591C1160E968641A298AB4FBF1F41C7054
:105CC800BDE838400020FFF7FFBE00BF7E700F0020
:105CD80010B5044618B906493120FFF721FFA2681C
:105CE8002AB163692168206998470023A36010BD21
:105CF800CE700F000EB433B5059D044618B911498E
:105D08004220FFF70DFF63691BB90E494320FFF7D7
:105D180007FF23681BB90B494420FFF701FF63689D
:105D28001BB908494520FFF7FBFE35B106AB01AAB0
:105D380029462046019300F079F802B0BDE83040CA
:105D480003B07047CE700F000A2938B504460D46D7
:105D580002D10D21FFF7F8FFA3682268591CA16042
:105D6800D554D4E901329A4204D32046BDE83840DC
:105D7800FFF7AEBF38BD00002DE9F84F9846DDE9C2
:105D88000A43154682460F460A464FF00109AA42C1
:105D98000FD2C14538BFC14613F0010B01D16CB910
:105DA80000240126B8F1010F1BD908F1FF386E4312
:105DB800F8E709F10109B2FBF5F2E8E79B070ED510
:105DC800B8F1000F0CBF30262026A145E9D2013CCE
:105DD80031465046FFF7B8FF002CF6D1E0E7202601
:105DE800F3E7B7FBF6F39D42E1D9DFF83C80B7FB58
:105DF800F6F3504618F8031006FB1377FFF7A4FFD5
:105E08003346AB42B6FBF5F6F1D2BBF1000F02D038
:105E18000CB1A14501D3BDE8F88F20215046013CC3
:105E2800FFF792FFF4E700BF61710F002DE9F74F0C
:105E380088461746054620B9B14940F25220FFF777
:105E48006FFE6B6923B9AE494FF41570FFF768FE12
:105E58002B6823B9AA4940F25520FFF761FE6B6809
:105E680023B9A74940F25620FFF75AFEB8F1000FB0
:105E780000F0428118F8011B49B92B7B002B00F078
:105E88003B81284603B0BDE8F04FFFF721BF252925
:105E980040F0B780002698F800302D2B424608F1D4
:105EA800010823D0302B24D02B2B25D000242A2BDB
:105EB80002F1010123D13B681A1D1B683A601C449A
:105EC8000A4613782E2B26D101324FF0000A1046CD
:105ED80010F8011BA1F1300CBCF1090F1DD80A23E1
:105EE80003FB0A13A3F1300A0246F0E746F0010665
:105EF800D1E746F00206CEE746F00406CBE711F8F4
:105F0800013CA3F130000928DBD80A2202FB043443
:105F1800303C0A46CBE74FF0000A12F8011B01F0AB
:105F2800FB0068289046F8D0782909D86F290CD842
:105F3800632962D022D8252963D0582900F08880A7
:105F480098F80030002B95D197E770390829F7D8D1
:105F580001A353F821F000BFDB600E00495F0E007B
:105F6800495F0E0069600E00495F0E0047600E0031
:105F7800495F0E00495F0E0059600E00642901D088
:105F88006929DDD13A68D2F80090111D89EAE972D1
:105F98003960A2EBE9724FF0010B092A35DCD345D1
:105FA80038BFD3462CB1B9F1000F01DB720700D519
:105FB800013CB30702D5BAF1000F03D0F00701D4B2
:105FC8004CBB0024B9F1000F2DDAC9F100092D21CD
:105FD8002846FFF7B9FE06F00302022A04D1BAF1F7
:105FE800000F01D11CBB0024CDE9004653460A220C
:105FF80049462846FFF7C0FEA2E73B681A1D1978F4
:106008003A602846FFF7A0FE9AE70A230BF1010B36
:10601800B2FBF3F2C1E7A345D4D220212846013CC4
:10602800FFF792FECCE77107D5D52B21D0E7A34522
:10603800DAD230212846013CFFF786FED2E73968DC
:10604800CDE900460A1D3A6053460A220968D0E79E
:1060580039680A1D3A60CDE9004653461022F5E733
:106068003B681A1D3A6016F00106D3F8009028D153
:10607800B9F1000F03D0484610F0FFFA0646B442C3
:1060880000D904BB09F1FF3919F8011F00293FF4B1
:1060980057AF2846FFF758FEF6E728460136FFF7C0
:1060A80053FE19F806100029F7D1A642BFF448AFED
:1060B800002C3FF445AF20212846013CFFF744FE61
:1060C800F3E70026EDE720212846013CFFF73CFED8
:1060D800D5E73B681A1D3A60302128461C68FFF74F
:1060E80033FE78212846FFF72FFE00220823CDE94A
:1060F8000032214610227CE703B0BDE8F08F00BFD4
:1061080014710F002DE9F041DDF818800E4617468E
:106118001D46044618B922498820FFF701FD1FB91A
:106128001F498920FFF7FCFC23681BB91C498A20FA
:10613800FFF7F6FC45BB1A498B20FFF7F1FCB207C5
:1061480003D017499120FFF7EBFCBB0703D0144994
:106158009220FFF7E5FCE3689E4204D322696B1E98
:106168003344934203D90E499320FFF7D9FC23689F
:10617800CDF81880D3F80CE03A462B463146204635
:10618800F446BDE8F041604763685A68B5FBF2F32E
:1061980002FB1353002BD2D001498E20CDE700BF5C
:1061A80071710F002DE9F0410D4616461F46044651
:1061B80018B919499E20FFF7B3FC23681BB9164983
:1061C8009F20FFF7ADFC1EB91349A020FFF7A8FCDC
:1061D80063681B68013B2B4203D00F49A320FFF7DC
:1061E8009FFCE3689D4207D363681B686A1E03FB34
:1061F80006232269934203D90749A520FFF790FC9B
:106208002368D3F810E032463B4629462046F44638
:10621800BDE8F041604700BF71710F0070B550B91B
:106228000E4D0F4C0026641B1423B4FBF3F4B44248
:1062380008D1002010E00368002BF1D0BDE87040C1
:10624800DB6918472B6813B901361435EFE7DB69AA
:10625800284698470028F7D070BD00BF08000020E6
:106268001C0000202DE9F74F99469DF83030009327
:1062780088469346064618B92349B620FFF750FCCE
:10628800F18872794A43043A4A4505D81E49019271
:10629800C420FFF745FC019ADBF80070B6F806A0A9
:1062A80007EB0901914209F1040488BFA2EB090731
:1062B800B4FBFAF5CBF800700AFB154445B9AAEB14
:1062C800040BBB4528BFBB462FB903B0BDE8F08F10
:1062D8003668013DF2E7009B043408EB05003444BE
:1062E8005A466BB12146A7EB0B0710F048F9BA459F
:1062F8005D443668D3464FF0000428BFBB46E3E749
:1063080001462046EFE700BFD2710F00FFF756BCE9
:10631800F8B546790146721E0546002393422D685A
:1063280003D30024A64202D8F8BD0133F6E70F686C
:106338002846FFF7A9FC01343946F3E72DE9F8436D
:10634800068ACD1C0746FFF777FC043E3544044611
:10635800B5FBF6F5F0B14FF48073EDB28380C680DB
:10636800013D076081464FF00008A84512D2384623
:10637800FFF762FC064648B163790133637108F19F
:106388000108C9F8000007608146EEE72046FFF7DC
:10639800BFFF34462046BDE8F88301210430FFF7EB
:1063A800EEBB10B5012104460430FFF7F4FB10F0F2
:1063B800FF0F04D12046BDE81040FFF7A9BF10BD6C
:1063C8001FB5144603920022009203AAFFF74AFF62
:1063D800039BA34203D00349F620FFF7A1FB04B0B7
:1063E80010BD00BFD2710F001FB5144603920122E1
:1063F800009203AAFFF736FF039BA34204D0034988
:106408004FF48070FFF78CFB04B010BDD2710F0001
:10641800836800225A60C3E904229A60DA601A602D
:106428007047000010B50D49A1F58C72914201D852
:1064380000200FE08C1AE30F03EBE4035B1002EB80
:10644800C30452F83330834205D802D204F108025B
:10645800ECE7606810BD2146E8E700BFE0760F0072
:1064680008B5FFF7DFFF024B002808BF184608BD34
:10647800B3750F00F0B578B371B36BB300241C602B
:106488000A44DB274FF0DC0C4FF0DD0E1C688A4213
:1064980004F1010500EB040604D11D60C02333702C
:1064A8000020F0BD0E78C02E05D0DB2E0CD01D606C
:1064B8000D78055506E01D6007551C68651C1D60B4
:1064C80000F804C00131E1E71D6006551C68651C31
:1064D8001D6000F804E0F5E70E20E2E710B580B390
:1064E800D0E902239A422ED00378012B0FD0022B39
:1064F80021D053B9C02928D0DB2902D10123037048
:1065080003E04368541C84609954112006E0DC2998
:1065180005D0DD290AD0022303700B2010BD511CC1
:1065280043688160C02199540023E8E7511C8160C9
:106538004368DB21F7E7C029E7D1002303708360B4
:10654800E3E70E20EAE70420E8E71846E6E700005C
:1065580037B50578012D0ED0022D34D095B92349D1
:10656800234800F016F900283BD120492148012290
:1065780000F0FCFB06E0037A33B91F491D480122ED
:1065880000F076FC03B030BD43681C4C19782046F7
:1065980000F0EDF880B18DF800500190184B684676
:1065A8001B689847A168E368A2885B1A9A42E4D2FC
:1065B800144B01221A70E5E7A268E3689A42F1D009
:1065C8008DF80000EAE7C3680B490A488DF80050C7
:1065D8000122019300F04CFC094B68461B68984760
:1065E800D0E703238DF80030F6E700BF992200209A
:1065F80088220020280000209822002074220020F1
:106608007022002084220020F0B51F46244B89B058
:1066180004461A600D46002940D08A882148096836
:1066280000F096F8002837D1AA89A9681E4800F01A
:106638008FF8002830D11D4E0FCE6D460FC596E855
:106648000F0085E80F0063690693237C184A1948F0
:106658008DF81C70003B18BF01238DF81430637C43
:10666800002B14BF0E2300238DF81530E368029326
:10667800A36803932368019369466368009300F055
:10668800B3F848B90C4B18702368013304D00B4990
:106698000B48012200F0ECFB09B0F0BD0720FBE736
:1066A80070220020742200208822002034770F00F6
:1066B80059650E0024000020842200209822002022
:1066C8002800002070B5044618B90C49CA20FFF705
:1066D80027FA0B4D0B482E78214600F05AF804464D
:1066E8004EB10023084909482B70012200F0C0FB75
:1066F80008B100F067FE204670BD00BFE0760F00CD
:1067080084220020742200209822002028000020E3
:1067180010B501460B4800F02AF8044678B90A4833
:1067280000F09AFB58B90949064800F032F830B928
:10673800BDE8104005490448012200F017BB204677
:1067480010BD00BF882200202800002099220020C8
:1067580049B152B1531E1A4007D18260016083804B
:10676800C260104670470E2070470920704710B568
:106778008468C2688388121B934208D3C268134096
:106788000268D154C3680133C360002010BD0420DF
:10679800FCE78268C3689A420AD0826883881340FB
:1067A8000268D35C0B7083680133836000207047F4
:1067B800052070471FB503788DF8003043680193B2
:1067C80083688DF80830C368054A0393054B68460B
:1067D80053F8213052F82110984705B05DF804FBB2
:1067E8009C220020A4220020F0B506460F4B16F884
:1067F80004CB43F82C200E4B17460C460A6943F885
:106808002C200FCC89B06D460FC594E80F00002FDF
:1068180085E80F00074ACDF810C008BF3A46694618
:10682800304600F027F909B0F0BD00BFA4220020CF
:106838009C220020BD670E0010B5054C22681AB9CD
:1068480004495120FFF76CF92368BDE81040184748
:10685800AC22002054770F0038B50D4628B90C49F2
:106868007720FFF75DF9002038BD0A4B9842FAD12E
:106878000020FFF719F9084B1C7914B901221D6093
:106888001A710020FFF720F9002CECD01120EBE75B
:1068980054770F0000200040AC22002018B90649A8
:1068A8009B20FFF73DB9054B984201BF044B0022DE
:1068B8001A601A71704700BF54770F00002000401B
:1068C800AC2200200023435082B043580193019B1F
:1068D80002B070470268530910B5044618D0012B5E
:1068E8004FF6FF7318BF002302F01F02D340DB07E7
:1068F80004D409494FF4F670FFF712F923681F2BE7
:1069080083BF03F01F03054823604FF0A04010BD6C
:106918004FF0FF33E8E700BFA7770F0000030050F0
:1069280007B5019001A8FFF7D5FF019B03F5E073B8
:10693800022240F8232003B05DF804FB1FB50123B1
:106948008DF80030044BCDE90110D3E900126846F8
:10695800904705B05DF804FBB42200207FB5434A98
:10696800D2F82461002E60D010464FF49271FFF7E0
:10697800A9FF02238DF80030D2F88034C2F88034A1
:106988000393D2F83C350293394BDA68019200221E
:10699800C3E906226846D3E9001290473348D0F885
:1069A800443173B14FF4A271FFF78CFF304B9A69F1
:1069B8003AB10022C3E90622D968D0F83C05FFF7AE
:1069C800BDFF2A48D0F82031ABB14FF49071FFF7E2
:1069D80079FF0123C360264B5A6962B1D0F84C1580
:1069E8000291002299688DF8002001915A61684649
:1069F800D3E9001290471D48D0F858319BB14FF4A5
:106A0800AC71FFF75FFF1A4B5A6962B1D0F84C15A9
:106A18000291002299688DF8002001915A61684618
:106A2800D3E90012904704B070BDD2F81031002BA2
:106A3800B4D04FF488711046FFF744FF0C4BD2F8DE
:106A48003C0599698842A9D1DC69D96864B1D2F852
:106A5800005225F02005C2F800521A699C61DA60DC
:106A6800DE61FFF76BFF99E79C61FAE700200040C1
:106A7800B42200202DE9F347054691460C4619B982
:106A88007149CF20FFF74CF8704B2E79242202FB76
:106A98000632984692F82020002A40F0D1806C49AE
:106AA8002868FFF7D9FE0746002840F0CB80236806
:106AB8005A1C13D001A80193FFF70CFF019A012378
:106AC8009340C0F808352368019301A8FFF702FF37
:106AD800019B03F5E073032240F823206368581CE8
:106AE80009D001A80193FFF7F5FE019B03F5E073B8
:106AF800002240F823202B68A269C3F82425217DB1
:106B0800627D0A43C3F86C25D4E900200129C3F843
:106B18000C25C3F814052AD1A368591C09D001A86B
:106B28000193FFF7D7FE019B03F5E073002240F8BD
:106B38002320E3685A1C13D001A80193FFF7CAFE6B
:106B4800019A01239340C0F80835E368019301A82E
:106B5800FFF7C0FE019B03F5E073032240F82320F2
:106B6800D4E902212B68C3F80815C3F8102524239B
:106B7800734308EB0302C2F80490226948F8032023
:106B8800B9F1000F4AD0286894F81C904FF4887126
:106B9800FFF798FE28684FF49071FFF793FE286876
:106BA8004FF49271FFF78EFE28684FF4A271FFF739
:106BB80089FE28684FF4AC71FFF784FE2C68254ADB
:106BC800C4F80423B9F1070F4FEA143A44F3073421
:106BD80003D921496B20FEF7A3FF002CAEBF04F1B7
:106BE80060431E4B0AF00F0A4FEA4919A8BF03F584
:106BF80061435FFA89F9B4BF03F80A9083F80093F8
:106C08002B681A0B43F30733002B07DB02F01F0135
:106C180001228A405B09124941F823202B68082287
:106C2800C3F80025242303FB06830022C3E90622B8
:106C38005A61012283F82020384602B0BDE8F08767
:106C48000827F9E71127F7E7D2770F00B4220020C9
:106C580065690E00100342001F780F0014ED00E074
:106C680000E100E02DE9F8433D4E0579046824234E
:106C780003FB056302465B68ABB13A4BC4F80833C3
:106C880044F30733002B4FEA14310CDB01F01F00EB
:106C98005B09012181402033334840F82310BFF3BA
:106CA8004F8FBFF36F8FD4F8003223F02003C4F85E
:106CB8000032242303FB05639B6933B14FF4A271AF
:106CC8002046FFF7FFFD012363604FF4AC712046B7
:106CD800FFF7F8FD0123E360242303FB0563D4F8E1
:106CE80058110029FBD0996919B1D4F84411002929
:106CF800F5D00023C4F800351368D3F80C05D3F891
:106D08001495D3F80875D3F810854FF0FF329042E8
:106D1800C3F80C25C3F81425C3F80825C3F81025B3
:106D280001D0FFF7FDFDB9F1FF3F02D04846FFF75C
:106D3800F7FDB8F1FF3F02D04046FFF7F1FD7B1C9D
:106D480002D03846FFF7ECFD2046FFF7A7FD2423C5
:106D580003FB0565002385F820306B60BDE8F883E8
:106D6800B42200201003420000E100E02DE9F047C2
:106D7800374F90F80480242303FB0873064693F8E2
:106D88002030012B8946924604D0324940F25310F4
:106D9800FEF7C6FEB9F1000F04D12E494FF4AA70D0
:106DA800FEF7BEFEBAF1000F04D12A4940F2551091
:106DB800FEF7B6FE337913B9BAF5803F04D32549F7
:106DC8004FF4AB70FEF7ACFE09F06043B3F1005F1F
:106DD8003AD13379242505FB03735C69002C35D13E
:106DE80005FB08753068C5F814A04FF49071C5F814
:106DF8000890FFF767FD4FF4AC713068FFF762FD4C
:106E080033686A69A968C3F84415C3F8482501229C
:106E18009A606A68AAB9D3F82021D3F858411AB9F8
:106E2800002CF8D00F2407E0002CFBD10122DA60F7
:106E3800D3F85821002AFBD0242303FB087700232A
:106E48007B612046BDE8F0871024FAE71124F8E7B3
:106E5800B4220020D2770F000379044A242101FBD1
:106E680003235869003818BF01207047B422002056
:106E78002DE9F041474E0479242303FB04630546BA
:106E880093F82030012B8846174604D042494FF426
:106E9800D370FEF745FEB8F1000F04D13E4940F229
:106EA800A710FEF73DFE27B93B494FF4D470FEF713
:106EB80037FE2B7913B9B7F5803F04D3364940F232
:106EC800A910FEF72DFE08F06043B3F1005F5FD113
:106ED800242303FB0463596821B12B684FF404721F
:106EE800C3F80823242303FB04639A6952B1DA69BF
:106EF800002A3BD021B12B684FF40472C3F8042355
:106F0800112031E09F61C3F80C80DA6128684FF4E2
:106F18008871FFF7D7FC28684FF4A271FFF7D2FCFD
:106F28002B68C3F83485C3F8387522BB01221A6070
:106F38002979242202FB016252681ABBD3F8104156
:106F4800D3F84421D3F82401144302D10028F5D002
:106F58002246242303FB01660023984218BF03201E
:106F68009A42B36118BF0F20BDE8F081C3F81080C2
:106F7800DF610122CAE7D3F8002242F02002C3F8F9
:106F88000022D5E74FF40472C3F804230020EBE78E
:106F98001020E9E7B4220020D2770F00034B6FF0EE
:106FA8007F425A6005221A60704700BF10E000E077
:106FB80028B139B10023C1E900301846704748F2BA
:106FC8001050704748F21350704738B1006848F2C3
:106FD8004053884214BF18460020704748F21050AA
:106FE800704730B148F21153914214BF184600203F
:106FF800704748F21050704770B506460C461D465B
:10700800FFF7D6FF50B9B3794AB1AB420AD111465E
:107018002046FEF794FB08B9044B236070BD48F284
:107028001050FBE748F21150F8E700BF7052464D88
:107038002DE9F0470C46054614492046DDE9088944
:1070480016461F46FFF7C1FF80B963685A7949465B
:1070580052004046FFF7C5FF40B99EB145B94FF40D
:10706800DA700B49FEF75CFD48F21550BDE8F08771
:10707800CDF820803B46324621462846BDE8F047F9
:10708800FEF76CBB48F21050F0E700BF7052464D57
:1070980051780F0010B5044638B149B10B6841600A
:1070A800984708B9044B236010BD48F20150FBE72C
:1070B80048F21050F8E700BF6E524648F0B4134645
:1070C80048B10768094EB7420AD161B12AB143688D
:1070D800F0BC5B68184748F201531846F0BC70478B
:1070E80048F20253F9E748F21053F6E76E52464861
:1070F800F0B460B107680C4EB7420CD171B1436867
:107108001568DC68A5420CD3F0BC9B68184748F2A8
:107118000150F0BC704748F20250FAE748F21350A9
:10712800F7E748F21450F4E76E524648F7B50446BC
:10713800DDE9086715460193FFF7ACFF68B9019AC6
:1071480029462046FFF7BAFF38B93A463146204665
:1071580003B0BDE8F040FFF7CBBF03B0F0BD0000BF
:10716800F8B50A4F0A4C0B4DE41B0121E4082970BD
:107178000026A64203D102232B700020F8BD57F841
:10718800363098470028F9D10136F2E7186D0F001C
:10719800206D0F00D822002038B50D46044618B9D6
:1071A80008493320FEF7BCFC691E21442046814271
:1071B80000D238BD03780A7800F8012B01F80139AC
:1071C800F5E700BFA7780F0070B50D4614460646D0
:1071D80018B90A494520FEF7A3FC1DB907494620FE
:1071E800FEF79EFC621E3244013DB24200D270BDE1
:1071F80015F8013F02F80139F7E700BFA7780F003B
:1072080070B5164604460D46FFF7DEFF3246A9194B
:10721800A019BDE87040FFF7D7BF38B50D46044642
:10722800FFF7BAFF29466019BDE83840FFF7B4BF39
:107238000268530910B5044618D0012B4FF6FF73A6
:1072480018BF002302F01F02D340DB0704D409490A
:107258004FF4F670FEF764FC23681F2B83BF03F01E
:107268001F03054823604FF0A04010BD4FF0FF33C7
:10727800E8E700BFA7770F000003005007B50190AB
:1072880001A8FFF7D5FF019B03F5E073032240F83F
:10729800232003B05DF804FB07B5019001A8FFF7B0
:1072A800C7FF019A01239340C0F80C3503B05DF87D
:1072B80004FB07B5019001A8FFF7BAFF019A012363
:1072C8009340C0F8083503B05DF804FB09B1FFF737
:1072D800F0BFFFF7E1BF07B5019001A8FFF7A8FFCE
:1072E800019BD0F81005D84000F0010003B05DF80C
:1072F80004FB07B5052301A80193FFF799FF019A3D
:10730800034602F5E072042043F82200FFF7B6FFB7
:107318000420FFF7C1FF03B05DF804FB08B5FDF7D3
:1073280029FCFDF7FFF90028FBD10D4D642445F039
:1073380001054FF47A40A847013CFAD1094B1B6874
:10734800DB0700D500BEBFF34F8F0749074BCA685C
:1073580002F4E0621343CB60BFF34F8F00BFFDE739
:10736800C0790F00F0ED00E000ED00E00400FA0540
:10737800014B1868704700BFDC22002038B504466E
:1073880038B1044D45F001054FF47A40A847013C57
:10739800FAD138BDC0790F0007B50B46064C07492E
:1073A8000092641AE40824040246054944F00100E6
:1073B800FDF737FBFFF7B2FF386D0F00286D0F00A0
:1073C80040790F0008B50246054B064806491B1AC6
:1073D800DB081B0443F00100FDF710FBFFF79EFFDD
:1073E800386D0F00286D0F0077790F0000B54FF04A
:1073F80080430022C3F8002101228FB01A60D3F81D
:107408000021002AFBD01C20FFF738FF1D20FFF7C2
:1074180035FF1620FFF732FF1720FFF72FFF0C204C
:10742800FFF72CFF0D20FFF729FF1D20FFF734FF82
:107438001C20FFF73EFF1620FFF73BFF1720FFF742
:1074480038FF0D20FFF728FF0C20FFF732FF09F067
:1074580007FC4FF008324FF0013369460020CDE9B0
:10746800002309F0FBF901A9012009F0F7F909F057
:10747800F3F904F087FB224B0693224B0393224B2C
:107488000493224B0293224B059304210523CDE953
:107498000A13204B0793204B0993204B0C9302A807
:1074A80064230D9304F07EFBFFF778FD1C4B4FF42B
:1074B8007A721B68B3FBF2F3013BB3F1807F09D208
:1074C800184A5360184BE02183F823100023936077
:1074D800072313601548164D164C0EF029FE04F0CC
:1074E800B1FB04F0E9FA04F097FC2B6822689B1AB8
:1074F800B3F57A7FF3D90EF025FE2B682360EEE70B
:10750800FB720E00D5720E00DF720E0085730E003E
:10751800F95E0F00555F0F00A95F0F0079730E0029
:107528005000002010E000E000ED00E092790F002C
:10753800DC220020E022002008B500210A48FDF7DF
:10754800A1F8FCF7D1FF0948094B0A4A0A49C01AB1
:10755800C008000440F00300FDF750FAFDF7E2F818
:107568000028FBD1FFF742FF517C0E00386D0F0059
:10757800286D0F00A4790F00B0790F00014B18682F
:10758800704700BFDC220020014B1868704700BF1D
:10759800DC220020024A136801331360704700BFE1
:1075A800DC2200200369C1688B429DBF8268D21823
:1075B80002F1FF3203F1FF3394BF501A581A704793
:1075C8002DE9F843D0E902940546A9EB0408406880
:1075D800904520440F46144404D90EF0D0FFEC60C7
:1075E800BDE8F8834246A4EB09040EF0C8FF6868BA
:1075F800224607EB0801F0E72DE9F843C56806467F
:10760800894617464FF000083469B3687068A54288
:1076180028BFE418013C621B5C1BBC4228BF3C46E7
:10762800944228BF14464946284422460EF0A7FF34
:10763800B3682544AB4208BF00253F1BA044A144C2
:10764800F560E1D14046BDE8F883000010B5114C63
:10765800114AA2610223C4E90433104BE361A26416
:107668004FF480530E4A0F492362E264002310222C
:10767800E01DA3626362E362A3656365E365226557
:107688000EF0D9FF084920460EF0D5FF2023A3713C
:1076980010BD00BFE4220020C6790F006C23002033
:1076A8005C230020CF790F00D3790F00F8B5184C70
:1076B800182300FB033503FB00402544C46A012C52
:1076C8000F4616460FD0022C1AD0F4B92846FFF7F9
:1076D80069FF864205D8324639462846FFF770FFCB
:1076E80034462046F8BD2846FFF75CFF86423446FC
:1076F80028BF0446224639462846FFF761FFF0E7CF
:107708002846BDE8F840FFF777BF0024E9E700BF47
:10771800E422002070B50B4B1B7804460D46164634
:107728000BB9FFF793FF0020FEF7BEF93246294652
:107738002046FFF7BBFF04460020FEF7C5F92046A8
:1077480070BD00BFE4220020FFF780BF826810B53B
:1077580004464068531C834205D820688154A360BE
:10776800E3680133E360D4E901329A420BD121681E
:107778002069FFF7CFFFA368984215BF4FF0FF338A
:107788000023E360A36010BD2DE9F84F9946DDE9B9
:107798000A431646054688460A464FF0010AB24291
:1077A80012D2CA4538BFCA4613F0010B01D184B9B9
:1077B8000024EB68002B48DB0127B9F1010F1FD922
:1077C80009F1FF397743F8E70AF1010AB2FBF6F24B
:1077D800E5E79B0712D5B9F1000F0CBF302720272A
:1077E800A245E6D239462846FFF7B0FFEB68002BE2
:1077F80004F1FF34DDDB002CF2D1D9E72027EFE7D5
:10780800B8FBF7F39E42DDD9DFF84890B8FBF7F3F1
:10781800284619F8031007FB1388FFF797FFEB6852
:10782800002B03DBB7FBF6F3B74210D2BBF1000F16
:107838000BD054B1A24508D220212846FFF786FF75
:10784800EB68002B04F1FF34F3DABDE8F88F1F462C
:10785800DCE700BFDA790F002DE9F04F9BB00AABE7
:107868000E46059340210023CDE90613CDE90830E3
:10787800039015464FF00A0A16F8011B39B9089B00
:10788800002B00F30B8108981BB0BDE8F08F252969
:1078980040F0B5804FF0000B07E0302B0FD14BF0D4
:1078A800020B01E04BF0010B0E46314611F8013B8B
:1078B8002D2BF7D0F1D8232B11D02B2B0CD0002453
:1078C800314611F8013BA3F1300009280AD80AFB18
:1078D8000434303C0E46F3E74BF0040BE4E74BF07E
:1078E800080BE1E72E2B0FD10E464FF0000930466A
:1078F80010F8011BA1F13007092F07D80AFB09135B
:10790800A3F130090646F2E74FF00009304610F8B7
:10791800011B01F0FB07682F0646F8D0782909D823
:107928006F290BD8632966D020D8252967D0582914
:1079380000F09480089B002B9EDAA0E77039082994
:10794800F8D801A353F821F0957A0E003D790E007E
:107958003D790E00757A0E003D790E00537A0E00BF
:107968003D790E003D790E00657A0E006429E1D15B
:1079780029680F68081D87EAE7712860A1EBE7719D
:107988004FF0010809293EDCC84538BFC8462CB16C
:10799800002F02DB1BF0040F00D0013C1BF0020F8C
:1079A80002D0B9F1000F04D01BF0010F01D17CBB4C
:1079B800002408990029BDDB002F35DA7F422D21EC
:1079C80005A8FFF7C3FE08990029B3DB0BF00301F4
:1079D800022904D1B9F1000F01D154BB0024089940
:1079E8000029A7DBCDE9004B4B460A22394605A8FA
:1079F800FFF7CAFE9EE72B681A1D19782A6005A8AA
:107A0800FFF7A4FE96E708F10108B1FBFAF1B9E720
:107A1800A045CED2202105A8FFF798FE0899002995
:107A280004F1FF34C3DAC4E71BF0040FCBD02B21D9
:107A3800C6E7A045D3D2302105A8FFF787FE0899ED
:107A4800002904F1FF34C8DAC9E72968CDE9004BF9
:107A5800081D28604B460A220968C8E72968CDE94D
:107A6800004B081D28604B461022F5E72B681A1DAD
:107A78002A601C6814F8011B00293FF45BAF05A8B5
:107A8800FFF764FE089B002BF4DA53E729680B1D07
:107A98002B6000220823CDE90032E5E7079A1AB1E6
:107AA80003980AA9FFF736FEDDE907231344089374
:107AB800E9E600BF0EB403B503AB01AA53F8041BF3
:107AC8000193FFF7C9FE02B05DF804EB03B07047FD
:107AD80073B5274B064627481B1ADB081B040C46C0
:107AE8003246254943F00400FCF788FFB4F1807F53
:107AF80039D322498F20FEF713F86FF07F41A14256
:107B080028BF21461E4B641AD3F80455631E942BD4
:107B180096BF9634746074600D44347B25F07F45BD
:107B280098BF963D032C03D914497720FDF7F8FF39
:107B3800134E04F5A8734FF4F86046F82350114B20
:107B480043F001039847104BA200134400221A6027
:107B58001B680193019B4FF4803303FA04F4C6F8C1
:107B6800044302B070BD952CC7D804499020C2E7E1
:107B7800386D0F00286D0F00EA790F00007A0F00AA
:107B880000400240907A0F0040410240244B2DE90A
:107B9800F7431A6842B123490A6801320A60002291
:107BA8001A601B680093009B1F4D204B204C214EF0
:107BB800DFF88C80DFF88C901F4FED1AED082D044C
:107BC80045F004053368CBB1002333603368019373
:107BD800224641462846019BFCF710FF227B1749A5
:107BE8004FF480339340C9F8083322462846FCF7FF
:107BF80005FF616851B12046FFF76AFF0436BE42AF
:107C080004F11004DED103B0BDE8F083A16811B11E
:107C18002046FFF75DFF2368002BEFD09847EDE77C
:107C2800044102406C330020386D0F00286D0F00AE
:107C3800300000204041024048410240757A0F0060
:107C4800637A0F0000400240034A044B1068D3F8DF
:107C5800043503EB006070476C330020004002409D
:107C680007B5074B00221A601B680193019BFCF7BC
:107C780081FFFCF757FD0028FBD103B05DF804FB3A
:107C880000010140BFF34F8F0549064BCA6802F453
:107C9800E0621343CB60BFF34F8F00BFFDE700BF27
:107CA80000ED00E00400FA050A4B1B685A1C05BFEA
:107CB800094B0A4A0A4A10680ABF1B781068C0F3C1
:107CC8000310082B04D103288CBF00200120704723
:107CD8000020704730010010E00F00F0E80F00F0BE
:107CE80034010010064B1B68082B06D1054B1B6896
:107CF800032B02D8044AD05C70470020704700BFAD
:107D08003001001034010010A97A0F0008B5FFF700
:107D1800CBFF40B14FF080430022C3F80C21C3F8D9
:107D28001021C3F83825FFF7BFFF002846D04FF0D1
:107D38008052694BD2F80414C3F82015D2F80814FD
:107D4800C3F82415D2F80C14C3F82815D2F8101467
:107D5800C3F82C15D2F81414C3F83015D2F8181437
:107D6800C3F83415D2F81C14C3F84015D2F82014FF
:107D7800C3F84415D2F82414C3F84815D2F82814C7
:107D8800C3F84C15D2F82C14C3F85015D2F8301497
:107D9800C3F85415D2F83414C3F86015D2F838145F
:107DA800C3F86415D2F83C14C3F86815D2F8401427
:107DB800C3F86C15D2F84424C3F87025FFF792FF76
:107DC80010B1464B464A1A60FFF78CFF18B1454B75
:107DD800FB22C3F81825FFF785FF48B14249434BFA
:107DE8000A681B6822F00F0203F00F0313430B60AD
:107DF800FFF778FF18B13E4B4FF400721A60FFF797
:107E080053FF48B14FF08043D3F80024D10744BF53
:107E18006FF00102C3F80024364AD2F8883043F4E0
:107E28007003C2F88830BFF34F8FBFF36F8F4FF0E6
:107E38001023D3F80C22D2071ED52F4B0122C3F8EA
:107E48000425D3F80024002AFBD04FF01022D2F8E2
:107E58000C3223F00103C2F80C32274B1A46D3F830
:107E680000140029FBD00021C3F80415D2F800340F
:107E7800002BFBD0FFF706FFD3F80022002A03DB14
:107E8800D3F80432002B23DA1B4B0122C3F8042554
:107E9800D3F80024002AFBD04FF010221221C2F898
:107EA8000012D3F80024002AFBD04FF0102312222E
:107EB800C3F80422104B1A46D3F800140029FBD04B
:107EC8000021C3F80415D2F80034002BFBD0D1E709
:107ED8000A4B0B4A1A6008BD00C000408C5600408F
:107EE8004881030000F00040E40E004058020010F2
:107EF8004096024000ED00E000E001405000002004
:107F08000090D00330B51A490B6885B004460BB110
:107F1800013B0B601748184A63682578121AD20883
:107F2800120442F004008BB90B68144A14490093F8
:107F3800012D08BF0A46A3681249FCF772FD636960
:107F48009BB1E06805B0BDE8304018470A68029266
:107F580022690192A2680A490092084A012D08BFC5
:107F68000A460949FCF777FDE9E705B030BD00BFCF
:107F780070330020286D0F00506D0F006A7C0F00D1
:107F8800647C0F00707C0F00967C0F002DE9F7438E
:107F98009846174C174BDFF86C90E41AE408D9F8A8
:107FA80000302404CDE9002305460B460E4617464B
:107FB8001149024644F00400FCF73FFD29460F48EA
:107FC800CDF800803B463246FEF79CF8054640B99E
:107FD800D9F800300133C9F80030284603B0BDE8AD
:107FE800F0830246064944F00200FCF707FDF4E777
:107FF800506D0F00286D0F00D27C0F000800002084
:10800800157D0F00703300202DE9F341134B144CFC
:10801800144FE41AE4083B680093240405460B4611
:108028000E4690461049024644F00400FCF7F9FC5D
:1080380029460E4843463246FEF7B4F8054630B99D
:108048003B6801333B60284602B0BDE8F081024638
:10805800074944F00200FCF7D1FCF4E7286D0F0053
:10806800506D0F0070330020427D0F000800002083
:108078007F7D0F00014B18700B2070477433002070
:10808800024B002218781A70704700BF7433002022
:10809800084B09480949C01A10B5C008000440F047
:1080A8000400FCF7A7FC064BBDE810401B6806203F
:1080B800184700BF286D0F00586D0F00BA7D0F00DC
:1080C800803300200A2803D90B38C0B2FFF7D2BF8B
:1080D8007047000070B5054686B00020FEF79EF890
:1080E800014690B1244A18212846FDF75FFC50B19B
:1080F800224A234B23499B1ADB081B04024643F000
:108108000100FCF77BFC06B070BD182268460EF033
:108118005FFA04231A4C8DF80030184B1A4EE41AF3
:108128001A4B1A6D3368E40824049A4244F0040494
:108138001AD117492046FCF75DFC164B31681868C0
:1081480001F0C8FC8DF80100FFF7BCFFD5E9011369
:108158008DF80100684698470F4800F0B9FC9DF873
:1081680001200E492046CCE701238DF801306846EE
:10817800D5E901139847F2E7DD800E00286D0F005E
:10818800586D0F00EE7D0F0078330020803C0020F2
:10819800177E0F007C33002099800E00467E0F006A
:1081A8002DE9F041836888B0044623B9AA4940F212
:1081B800CF20FDF7B5FC1822002102A80EF008FA1E
:1081C800A64EA74922788DF80820761AF6080123CA
:1081D80036048DF8093046F004051F460C2A00F2D3
:1081E8005282DFE812F00D00B300A500B300B3001F
:1081F8005002B3009D00B300950026003D00AA0080
:1082080098492846FCF7F6FB8DF80C709DF8092074
:1082180095492846FCF7F2FBD4E9011302A89847D0
:108228009DF80930012B00F01882904B05201B683F
:1082380012E28F492846FCF7DDFB4FF08053D3F854
:1082480000210392D3F804210492D3F80C2192025E
:108258000692D3F81021920205921B690793D5E77D
:108268008449854E2846FCF7C5FB227C834928466D
:10827800FCF7C4FB43F20403326A1B6880498B4253
:1082880014BF01230223012A4FF001028DF80920AF
:10829800227C08BF013352B902238DF80C30F368F1
:1082A8000493784B0593C3F57E230693AEE7012A22
:1082B80017D143F204000068884212D100234FF41A
:1082C80040528DF80C301278142A84BF43F21403FC
:1082D8001B6804934FF48053059343F208031B680B
:1082E800E3E79A4209D201238DF80C30B36804936E
:1082F80000F0B2FCB3690590D7E763492846FCF75C
:1083080079FBFF238DF80C300023CDE90433CCE74B
:108318005E492846FCF76EFB237C8DF80C3075E728
:108328005B492846FCF766FB238AADF80C306DE7FD
:1083380058492846FCF75EFB68E728465649FCF78B
:1083480059FB4A4B07201B6898475FE7062A534F9B
:1083580001D0012A01D123693B703B78012B0AD057
:10836800022B00F0AF804E4946F00100FCF742FBBB
:1083780000233B7001E1013A072A66D8DFE802F0E2
:1083880004651444655D651E46492846FCF732FBC2
:10839800364B03201B689847606901F04BF8FFF7DC
:1083A80091FE8DF8090031E73F492846FCF722FB8A
:1083B800314BDA6B1B6C0392049327E7236923B9CB
:1083C800254940F21310FDF7ABFBA38A23B92249D4
:1083D8004FF48A70FDF7A4FB34492846FCF70AFBE2
:1083E800A18A206901F03EF8FFF76CFE224B8DF858
:1083F8000900DA6B1B6C0493E3680392002B3FF4CB
:1084080005AF2069984701E729492846FCF7F2FAA1
:108418002849294801F0A4F8FFF754FE01288DF8EF
:1084280009007FF4F3AE002000F052FB08B923499D
:108438007FE70A238DF80930E8E621492846FCF74A
:10844800D9FA4FF400730593B2E703494FF4BC70AF
:10845800FDF766FBDAE600BF6E7E0F00586D0F0071
:10846800286D0F00CF7E0F00467E0F00803300205E
:10847800F27E0F00157F0F00803C0020387F0F0030
:10848800DBE5B15100400E00557F0F006C7F0F00F7
:10849800837F0F009D7F0F00C17F0F0054000020D5
:1084A80059830F00D97F0F0003800F0027800F002A
:1084B80050800F00783300207C3300207B800F0031
:1084C800A0800F00013A072A00F2D980DFE812F0F5
:1084D8000800D7009900A800D700C800D70060009E
:1084E8006C492846FCF786FA00F0ECFF30B96A4977
:1084F80046F00100FCF77EFA08239BE7626932B96F
:10850800664946F00100FCF775FA032392E7C2F3C7
:108518000B0343B1624B63495B6D096813448B429B
:1085280001D06149EDE7B2F5805F06D95F4946F0B1
:108538000100FCF75FFA04237CE7594F59497B6D2A
:108548000968D018884206D9009146F001005849B8
:10855800FCF767FAD0E77A64FA6CBA64554A3B6567
:1085680010683B63002201211844FFF74DFD30B12C
:10857800514946F00100FCF73DFA05235AE7BB6C68
:1085880000933B6D7A6C4D492846FCF74AFA3DE664
:108598004B492846FCF72EFA00F094FF0028ABD090
:1085A8003F4FA18AD7E914329B1A7A6C0B44934245
:1085B80001D94449A5E73F4A3B6B1268206903EBA0
:1085C800020807F14802FDF78FFAE368064623B967
:1085D8003D494FF4F870FDF7A3FAE368A28A2169D0
:1085E8004046FFF7D3FC08B1E3680AE7A38A3A6B71
:1085F800BE641A443A633A6D049613443B65039388
:1086080004E6274E31492846FCF7F4F9B36C326D7D
:108618002F492846FCF7FBF9B36C0493336DEEE75A
:1086280028462C49FCF7E6F91D48D0E91473426C3A
:10863800FB1A934205D0284946F00100FCF7E7F9F8
:108648005AE7836CC3640021416447652046FFF7FD
:1086580041FD224B1B680420984708B0BDE8F08113
:108668001F492846FCF7C6F90D4B4FF480519A6C08
:108678001B6D0591009104921A49039384E71249EE
:1086880040F29720E4E6184946F00300FCF7B6F9F3
:108698000223CFE6CA800F00F1800F0026810F0069
:1086A800803C0020783300203F810F0060810F005C
:1086B80084810F007C330020F5810F000C820F00AD
:1086C80047820F006D820F006E7E0F0084820F00BC
:1086D800A5820F00BB820F00E3820F0080330020C9
:1086E80007830F002E830F0079830F00836810B56E
:1086F8008BB10A4A1821FDF759F9044648B10848D0
:10870800084B09491B1ADB081B0443F00200FCF75D
:1087180071F9204610BD0724FBE700BFA9810E00B0
:10872800286D0F00586D0F0098830F00011F014836
:10873800FDF7AABAA46D0F0013B5074C0A4601ABA2
:1087480001462046FDF796FE9DF804200348214681
:10875800FEF70CFB02B010BD233500205C000020A2
:1087680010B5064C23783BB1054B984204D0054818
:10877800FEF778FA00232370002010BD8433002010
:10878800206D0F005C0000202DE9F047364B1A7869
:1087980088B004469846002A64D1344B344E354993
:1087A800354DF61AF608360446F0040A5046FCF72A
:1087B80021F932482C60FDF701FAA9460446002841
:1087C80033D12E482E4F2F4DFDF736FA2E4B8322EC
:1087D8000330C3E90104DA601C702C4B7B602C4B1E
:1087E800C7E902322B4B3B612B4B7B610FCD6C46AB
:1087F8000FC495E80F0084E80F0006220823CDE98E
:10880800002307210523CDE90213244A24480497AD
:10881800012569468DF81450FDF7E6FF044640B17E
:10882800204946EA0500FCF7E5F8204608B0BDE80F
:10883800F0871D491D482A46FEF71AFB044620B159
:108848001B4946F00100FCF7D5F850461949FCF7DA
:10885800D1F8D9F80030012088F80000002BE4D0C6
:108868009847E2E70024E0E784330020286D0F00F2
:10887800686D0F00C8830F0088330020A46D0F00B7
:10888800583500207C840F007035002041870E0089
:1088980035870E003C350020206D0F00C1880E0082
:1088A80058000020E4830F00543500205C000020AD
:1088B800FD830F0014840F0070B50378012B0C465C
:1088C80002D0022B33D070BD037A1BB343681A4819
:1088D8001978FDF703FE0546184919480122FEF7E5
:1088E800C7FA002DEFD1144E2046D6E9011201F047
:1088F8008DFA1448FDF7A0F9134B144A9B1ADB08AC
:108908001B04044640B9BDE87040114943F001001A
:10891800FCF770B80D25DFE702460E4943F0030067
:108928000334FCF76BF8C6E901453570CBE7BDE8C1
:108938007040C068FEF746BD7035002054350020F1
:108948005C000020A46D0F00686D0F00286D0F00FB
:108958003A840F0054840F0010B5002204465821B1
:108968000430FDF7C1F823681B1A5842584110BD5E
:108978002DE9F74317464FF4607298461F4D064697
:1089880089460DF073FD1E4BED1AED0804462D04C3
:1089980045F0040054B91B49FCF72CF81FB9002016
:1089A80003B0BDE8F0832046B847F8E716490190C0
:1089B800FCF720F8154901983246FCF71FF8002209
:1089C80001213046FFF720FB30B1114945F0010085
:1089D800FCF710F80320E3E74FF46072494640467D
:1089E8000DF0CDFD3B464FF4607241463046FFF72F
:1089F800CDFA0028D3D00749E8E700BF706D0F0013
:108A0800286D0F009C840F00E6840F00FA840F0085
:108A18001A850F003D850F0070B50C4C05460022E5
:108A28005821201DFDF760F800222060C32104F5BD
:108A38001870FDF759F82A46C4F85C022146044B21
:108A48000448BDE87040FFF793BF00BF803C00209A
:108A58008035002000F00F00F8B5164B164C174E65
:108A6800E41AE4080D46240432681549074644F020
:108A78000300FBF7C3FF2B68013313D111494FF4EF
:108A8800C170FDF74DF83A460F4B30682946FFF79D
:108A98006FFF024660B144F001000C49BDE8F840A0
:108AA800FBF7ACBF2846FFF757FF0028EBD1E5E7F7
:108AB800F8BD00BF286D0F00706D0F006400002026
:108AC80064850F008E850F0000390020EC850F00AB
:108AD80038B505460020FFF79FFF044618B903493B
:108AE8002846FFF7B9FF204638BD00BF803C00206C
:108AF80010B5084C4FF40072FF2104F15C000DF032
:108B080067FD2022002104F138000DF061FD0023EB
:108B1800236310BD803C00202DE9F843154B164C0B
:108B2800164D174F1749E41AE4087F1B2404FF0861
:108B380044F0040406463A462046FBF75FFF4FF030
:108B4800000805F10409B84501D100250BE059F8E2
:108B5800383030469847054640B103460A494246F0
:108B68002046FBF754FF2846BDE8F88308F10108C2
:108B7800E9E700BF286D0F00386D0F00206D0F006A
:108B8800286D0F003A860F005F860F0008B50C228B
:108B980000210DF01DFD024B00221A6308BD00BF25
:108BA800803C002043F2040008B50268114B9A4249
:108BB8001ED1114900230422FFF7E8F958B10F4BE1
:108BC8000F481049C01AC0080004BDE8084040F02A
:108BD8000100FBF70FBF0C4B1A6A43F20801012A88
:108BE80008BF18629A6909680A44A2F580529A6116
:108BF80008BD00BFDBE5B15188880F00286D0F0064
:108C0800386D0F0089860F00803C002043F2040372
:108C18001A68084B9A4201BF43F20803186800F625
:108C2800FF7020F47F600CBF20F00F004FF48050DD
:108C3800704700BFDBE5B15108B5FFF7E7FF054B0B
:108C48009B69184400F6FF7020F47F6020F00F0045
:108C580008BD00BF803C0020FFF7D8BF4FF480500C
:108C6800704700002DE9F04F89B0814601920693C4
:108C78006C4A6D4B05919B1ADB081B0443F00404F6
:108C88006A4903932046FBF7B5FE6949694D6A4E68
:108C98006A4F4A462046FBF7B1FE059B6849002B00
:108CA8000CBF2A4632462046FBF7A8FE019B6549C1
:108CB800002B0CBF2A4632462046FBF79FFE069B38
:108CC8006149002B0CBF2A4632462046FBF796FE28
:108CD80043F204035D491A685D4B20469A4214BF6B
:108CE8002A463246FBF78AFE5A492046FBF782FE9F
:108CF800BB693A6A58492046FBF789FE7B6AFA6ADB
:108D080056492046FBF783FE4FF0000B0797029564
:108D1800BBF1010F5FFA8BF84FD0B8F1020F5BD0AF
:108D2800FFF78AFF019B0746002B44D0079B1D6A6B
:108D38006B1E5D425D41DFF850A1BA4503D2484938
:108D4800B120FCF7EDFE059B4649AAEB070ACA4588
:108D580038BF01235A4620460493FBF74FFE424989
:108D68003A462046FBF74AFE029B4049CA4538BFAF
:108D780033461A462046FBF741FE029B3C49002D2C
:108D880018BF33461A462046FBF738FE0499029B63
:108D9800002918BF33461A4636492046FBF72EFEEF
:108DA800049BEBB1E5B90BF1010BBBF1030FAFD19C
:108DB800CA4524D216E0019DBDE7FFF727FF069BB1
:108DC80007463BB943F20402214B1568ED1A18BF58
:108DD8000125B0E75D46AEE701254FF48057AAE7C5
:108DE800CA4509D2039B244943F00200FBF702FE5F
:108DF800042009B0BDE8F08FB8F1020F0DD11F496A
:108E08002046FBF7F7FDFFF7CDFE20461C49FBF790
:108E1800F1FD1C48FFF7BAFE02E0B8F1000FF4D1EB
:108E28000020E6E7286D0F00386D0F00AA860F00B6
:108E3800C8860F00E2860F00DD860F00803C002008
:108E4800E8860F00F9860F0007870F001C870F00C0
:108E5800DBE5B1512C870F003B870F005B870F00C4
:108E68007B870F00D6870F00E0870F00F5870F007C
:108E78000A880F001D880F002E880F005A880F00DF
:108E880073880F00983C002000100E002DE9F04F69
:108E98004049414E8A6B414DDFF82891DFF828A1FF
:108EA800DFF828B185B06F465C313846FCF71AF90F
:108EB80097E80F004FF0000886E80F00384BF36082
:108EC8004FF447724146284689F80080CAF8008066
:108ED800CBF800800DF07CFB32492A463046FCF77F
:108EE8009CFB044650B93048304B3149C01AC00881
:108EF800000440F00100FBF77DFD14E099F80090B4
:108F0800B9F1000F04D095F86C312C78A3B374B183
:108F1800264B25482749C01AC008000440F0010024
:108F2800FBF768FD0024204605B0BDE8F08F95F8F2
:108F38007241002CF7D0DBF80020DAF80010384630
:108F4800FCF7D0F897E80F0086E80F004FF4B272EC
:108F5800414605F5BA700DF03BFB174905F5BA72A5
:108F68003046FCF75AFB044680B90F480F4B1349AB
:108F7800C01AC0080004BCE7002CD4D0AC79002C7F
:108F8800D1D008350E4B4C461D60CCE705F5BA75B7
:108F9800F8E700BF803C00204C4300203040002010
:108FA80065900E00F47B0F00786D0F00286D0F00A0
:108FB8008C880F00B9880F00407B0F00D8880F00FD
:108FC800084400202C400020284000202440002095
:108FD80010B590F8553013F0FB0F08D190F86420C5
:108FE8002AB1846E74B30C600124204610BD13F0BE
:108FF800010403D090F8564004B1846D9B07F1D565
:1090080090F85C30002BEDD00F4B026EC3F57E2339
:109018009A4201D81444E5E70C490D48401AC008A3
:1090280000040C4940F00100FBF7F1FC0424074B55
:1090380007480949C01AC008000440F00100FBF7BE
:10904800D9FCD2E70F24F2E700400E00286D0F008C
:10905800786D0F0014890F0031890F005B68DA689A
:10906800134B9A4230B408D1124C226812B91249F3
:109078000A6822B1114B00221A7030BC7047D0E93F
:109088000132981813F9015B002DA0EB0302F9DBFC
:1090980023600A4B0A60012119700948094B0A49E3
:1090A800C01AC008000430BC40F00400FBF7A6BC9E
:1090B800407B0F0028400020244000202C40002046
:1090C800786D0F00286D0F0062890F0000B591B010
:1090D800FEF746F818B10D49DB20FCF721FD0C49D5
:1090E80020226846FEF78CF80A490B4840236A4656
:1090F800FDF782FF18B10549E520FCF711FD074B84
:1091080001221A7011B05DF804FB00BF7F890F00BF
:1091180000790F005C430020C86F0F00004000205A
:109128002DE9F04FCFB005AF81468846154600219E
:109138007C229A4606A820233B60DDF860B10DF03A
:1091480047FAA422002125A80DF042FA404B1B78CB
:109158000BB9FFF7BBFF3F4C3F484049001BC00815
:10916800040444F003063046FBF744FCB8F1000F52
:1091780008D144F002003A49FBF73CFC13204FB0F9
:10918800BDE8F08FB9F1000F05D030463549FBF73F
:1091980031FC1620F3E73449DFF8F4905A4630469C
:1091A800FBF72CFC31490197CDF800905B465246FD
:1091B80006A8FDF7BBFF002848D1402D46D1DFF8AF
:1091C800D4A02A46414650460DF0D9F928493046E0
:1091D800FBF710FC20215046FEF71FF8CDE900A54B
:1091E8004A463B68234925A8FDF722FF024638B3C3
:1091F800214944F00100FBF701FC44F004001F4939
:109208000390FBF7F7FB2A4603985146FBF734FC1B
:109218001B490398FBF7EEFB3A8803984946FBF78E
:109228002BFC18490398FBF7E5FB174903982A46D6
:10923800FBF722FCFBF776FA0028FBD105209EE716
:1092480030461249FBF7D6FB012098E70A2096E73B
:1092580000400020286D0F00786D0F00DF890F0097
:10926800078A0F001B8A0F00328A0F0008700F0050
:109278004D8A0F005C4300205E8A0F00808A0F0031
:109288008B8A0F00918A0F0000790F009D8A0F00CA
:10929800A4430020C443002043F2040313B51A6812
:1092A800224B9A423FD042F204014458E11A4C4200
:1092B8004C419A4234D142F20403C35893422FD10D
:1092C8004FF440531B78142B81BF43F21403184A00
:1092D8001B68B3FBF2F300F5005298BF0023127825
:1092E800142A82BF42F2140211498258114888BFD9
:1092F800B2FBF1F21049A0EB010098BF00220F4920
:109308000092C00893424FEA00400D4A40F0030023
:1093180018BF0A460B4914BF01240024FBF781FB40
:10932800204602B010BD0024C3E700BFDBE5B15101
:1093380040420F00786D0F00286D0F00AC8A0F00B7
:10934800B28A0F00B88A0F002DE9F043ABB0064689
:109358000F4690461C467C22202300210BA802932E
:109368000DF036F9294B1B780BB9FFF7AFFE2CB17E
:109378003146202203A8FDF727FF03AE244B254CD6
:109388002549DFF8AC90E41AE408240444F0040505
:1093980043463A462846FBF73AFB02AB01933A4666
:1093A8001E49CDF8009043460BA8FDF7BFFE0246C4
:1093B80040B144F001001A49FBF720FB00202BB014
:1093C800BDE8F0832022314648460DF04FF8D8B169
:1093D800144944F00200FBF70DFB13492846FBF73C
:1093E80009FB202231462846FBF746FB0F49284651
:1093F800FBF700FB202249462846FBF73DFBFBF71D
:1094080091F90028FBD1DAE70120D8E700400020D5
:10941800286D0F00786D0F00F88A0F0008700F0094
:109428002B8B0F005C8B0F00768B0F00888B0F0047
:109438000140002010B5044658B1B0F5007F0AD8A5
:10944800064B00221A70FFF753FB054B01209C6363
:1094580010BD0320FCE70420FAE700BF0444002005
:10946800803C002070B5134C0646E06BA36B421895
:109478009A420D460BD9104B10481149C01AC00822
:10948800000440F00100FBF7B5FA032070BD5C3022
:109498000A46204431460DF072F8E36B04F14002AD
:1094A8002B4429463046E363FCF71EFB2064012069
:1094B800ECE700BF803C0020286D0F00786D0F009E
:1094C800988B0F00014B1878704700BF04440020A8
:1094D800F0B51C4C94F86C2185B07AB394F8D80296
:1094E800B4F8DA2204F5377104F5B874164E174D3E
:1094F800336800932B68FFF713FE0128074605D150
:10950800201D00F0EBFA0128074614D01048114C32
:109518001149241AE408240444F00200FBF76AFA0B
:1095280044F004000D490390FBF764FA3288296877
:109538000398FBF7A1FA384605B0F0BD114610466E
:109548000434D3E730400020244000202840002085
:10955800286D0F00786D0F00BB8B0F00D18B0F00AB
:10956800384BD3E90E329A422DE9F04106460D46B2
:109578000DD0354B35483649C01AC008000440F0B4
:109588000100FBF737FA08242046BDE8F081314F87
:1095980097F80080B8F1000F09D0FFF74DFB2E4B6C
:1095A800306029461868BDE8F041FFF711BDFFF7A4
:1095B8006DFC00283AD0FFF78BFF0128C6F8008021
:1095C8000446C5F8008022D1DFF88C802946D8F8F7
:1095D8000000FFF7FDFC0128044618D1D8F8002048
:1095E8002868138A1BB15369003B18BF0123002266
:1095F8001146FFF737FB154D134BED1AED082D04F7
:1096080040B1164945F00100FBF7F4F90424FFF7CF
:109618006FFAB9E7FFF710FB11493060024645F0D1
:109628000400FBF7EBF901233B70ADE7064B074855
:109638000C49C01AC008000440F00100FBF7DAF931
:109648000524A1E7803C0020286D0F00786D0F00ED
:10965800DF8B0F000444002008440020FA8B0F0021
:10966800158C0F00318C0F0037B50D46044630B904
:10967800074901924FF42C70FCF752FA019A012322
:10968800294604F1720003B0BDE83040FFF75CBE24
:109698007F890F0013B50446084623781146032B2B
:1096A8002CD8DFE803F01402161F0022D4F801407A
:1096B800FCF71AFA84420AD01448154B1549C01A07
:1096C800C0080004012240F00400FBF797F90120CC
:1096D80012E00A4600230146601C02B0BDE81040B3
:1096E800FFF732BE034600914022611C0020FFF7BD
:1096F80017FD431E5842584102B010BD40F2D93000
:109708000549FCF70DFA0020F6E700BF786D0F0059
:10971800286D0F004E8C0F007F890F002DE9F04354
:10972800A3B004460D46914600217C221E4603A89C
:1097380020239DF8AC700293DDF8A8800CF048FF58
:109748004122002120460CF043FFB5F894304B45E8
:1097580082BF442303FB095393F896702770032FA5
:109768003AD8DFE807F009020F2C002241463046BC
:10977800FCF7BAF9C4F80100424631462046FFF723
:1097880089FF19E002AB0193631C00931749434614
:10979800324603A8FDF7CAFC0028EDD0FCF760FEAE
:1097A800134B1449024614481B1ADB081B0443F0E8
:1097B8000100FBF723F9002023B0BDE8F083442023
:1097C80000FB09F2AB1802F19A012944B3F898207A
:1097D800601C0CF0D4FECFE70548074B0749C01AB8
:1097E800C00800043A4640F00100E2E708700F00A4
:1097F800786D0F00718C0F00286D0F00A28C0F0080
:109808002DE9F047A34B1C68A4B0054688461746C7
:109818000A4601462046FFF727FF002800F010817E
:1098280094F85560002E43D14FF00109CDE9008925
:109838002B463246214613A8FFF770FF58B9002F70
:1098480000F0F78005249448FFF7A0F9FFF750F9D6
:10985800924B9D64F0E0002F48D0412213A9904814
:109868008E4F0CF08CFE8F4B8F489049C7F82C9088
:10987800C01AC008000440F00400FBF7BBF8238AB4
:109888003E620BB163690BB9FFF78CF994F892301B
:1098980013B194F893300BB96368BB60002241465A
:1098A8002846FCF721F97D4B0124C3E90980CDE75F
:1098B8004122002102A80CF08BFE06F0010A412289
:1098C800002113A8D14606F002060CF081FEBAF179
:1098D800000F40F0BA80002E40F0A480744940F296
:1098E8006130FCF71DF9002F40F09F806B4B01247D
:1098F8005C61A1E0A36D03F5FF5203F6FF731F320D
:10990800C3F30B03D31A42F20802AA589A4206D2AA
:109918006548644B6749C01AC0080004A7E043F2D1
:1099280004031B688B421AD14FF440531B78102B49
:109938008ABF43F2100300221A6805F500531B780A
:10994800102B8ABF42F210030023EB589A4206D02C
:109958005548544B5849C01AC008000487E02846A7
:10996800FFF79AFC48B150484E4B5449C01AC008FA
:10997800000440F00200FBF73DF801230193A36DBA
:10998800009300222B46214602A8FFF7C7FE0028B5
:1099980071D0D6B1A26DAB18A8EB02020021CDE9B7
:1099A800002113A84A462146FFF7B8FE002862D0D6
:1099B8009DF84C304BB13C483A4B4149C01AC0085D
:1099C800000440F00200FBF715F8002F8ED0B9F123
:1099D800000F2AD02846FFF75FFC10B13948FFF77F
:1099E800D5F84122384802A90CF0C9FD2B4B002EAE
:1099F80014BFAC22A522DA62A26D5A63002E3FF48E
:109A08004DAF3248412213A90CF0B9FD94F89230B9
:109A180023B194F89330002B7FF440AF1F4B62685A
:109A2800DA603BE742462B46B8E71C4BAA22DA62CB
:109A3800E4E70524FFF75CF8204624B0BDE8F0878A
:109A48001724002F7FF4FFAEF4E742F20403E9582D
:109A580003F1A34303F5471303F2D75399423FF4A5
:109A680049AF11480F4B1A49C01AC008000440F00A
:109A78000100FAF7BFFF002FDBD0BAF1000F3FF467
:109A8800E1AEFFF7EBF8A8427FF4DCAEFFF78AF807
:109A9800D8E600BF08440020A43C0020803C0020F9
:109AA800213F0020286D0F00786D0F00C38C0F0038
:109AB8007F890F003C8D0F00A58D0F00128E0F00BF
:109AC800538E0F00983C0020E03E0020623F0020AB
